{
  "_format": "hh-sol-artifact-1",
  "contractName": "BloodyRoarEscrow",
  "sourceName": "contracts/BloodyRoarEscrow.sol",
  "abi": [
    {
      "anonymous": false,
      "inputs": [
        {
          "indexed": false,
          "internalType": "string",
          "name": "issueId",
          "type": "string"
        },
        {
          "indexed": true,
          "internalType": "address",
          "name": "client",
          "type": "address"
        },
        {
          "indexed": false,
          "internalType": "uint256",
          "name": "amount",
          "type": "uint256"
        }
      ],
      "name": "Deposited",
      "type": "event"
    },
    {
      "anonymous": false,
      "inputs": [
        {
          "indexed": false,
          "internalType": "string",
          "name": "issueId",
          "type": "string"
        },
        {
          "indexed": true,
          "internalType": "address",
          "name": "client",
          "type": "address"
        },
        {
          "indexed": false,
          "internalType": "uint256",
          "name": "amount",
          "type": "uint256"
        }
      ],
      "name": "Refunded",
      "type": "event"
    },
    {
      "anonymous": false,
      "inputs": [
        {
          "indexed": false,
          "internalType": "string",
          "name": "issueId",
          "type": "string"
        },
        {
          "indexed": true,
          "internalType": "address",
          "name": "worker",
          "type": "address"
        },
        {
          "indexed": false,
          "internalType": "uint256",
          "name": "amount",
          "type": "uint256"
        }
      ],
      "name": "Released",
      "type": "event"
    },
    {
      "inputs": [
        {
          "internalType": "string",
          "name": "issueId",
          "type": "string"
        },
        {
          "internalType": "address",
          "name": "worker",
          "type": "address"
        }
      ],
      "name": "deposit",
      "outputs": [],
      "stateMutability": "payable",
      "type": "function"
    },
    {
      "inputs": [
        {
          "internalType": "string",
          "name": "",
          "type": "string"
        }
      ],
      "name": "escrows",
      "outputs": [
        {
          "internalType": "address",
          "name": "client",
          "type": "address"
        },
        {
          "internalType": "address",
          "name": "worker",
          "type": "address"
        },
        {
          "internalType": "uint256",
          "name": "amount",
          "type": "uint256"
        },
        {
          "internalType": "enum BloodyRoarEscrow.EscrowState",
          "name": "state",
          "type": "uint8"
        },
        {
          "internalType": "bool",
          "name": "isValue",
          "type": "bool"
        }
      ],
      "stateMutability": "view",
      "type": "function"
    },
    {
      "inputs": [
        {
          "internalType": "string",
          "name": "issueId",
          "type": "string"
        }
      ],
      "name": "getEscrow",
      "outputs": [
        {
          "components": [
            {
              "internalType": "address",
              "name": "client",
              "type": "address"
            },
            {
              "internalType": "address",
              "name": "worker",
              "type": "address"
            },
            {
              "internalType": "uint256",
              "name": "amount",
              "type": "uint256"
            },
            {
              "internalType": "enum BloodyRoarEscrow.EscrowState",
              "name": "state",
              "type": "uint8"
            },
            {
              "internalType": "bool",
              "name": "isValue",
              "type": "bool"
            }
          ],
          "internalType": "struct BloodyRoarEscrow.Escrow",
          "name": "",
          "type": "tuple"
        }
      ],
      "stateMutability": "view",
      "type": "function"
    },
    {
      "inputs": [
        {
          "internalType": "string",
          "name": "issueId",
          "type": "string"
        }
      ],
      "name": "refund",
      "outputs": [],
      "stateMutability": "nonpayable",
      "type": "function"
    },
    {
      "inputs": [
        {
          "internalType": "string",
          "name": "issueId",
          "type": "string"
        }
      ],
      "name": "release",
      "outputs": [],
      "stateMutability": "nonpayable",
      "type": "function"
    }
  ],
  "bytecode": "0x608060405234801561001057600080fd5b506114e7806100206000396000f3fe60806040526004361061004a5760003560e01c80635cc9f8641461004f578063969631d5146100905780639be37a97146100cd578063f34e3723146100e9578063fe5f2e8814610112575b600080fd5b34801561005b57600080fd5b5061007660048036038101906100719190610d5a565b61013b565b604051610087959493929190610e8f565b60405180910390f35b34801561009c57600080fd5b506100b760048036038101906100b29190610d5a565b6101e1565b6040516100c49190610f86565b60405180910390f35b6100e760048036038101906100e29190610fcd565b610325565b005b3480156100f557600080fd5b50610110600480360381019061010b9190610d5a565b61059d565b005b34801561011e57600080fd5b5061013960048036038101906101349190610d5a565b610897565b005b6000818051602081018201805184825260208301602085012081835280955050505050506000915090508060000160009054906101000a900473ffffffffffffffffffffffffffffffffffffffff16908060010160009054906101000a900473ffffffffffffffffffffffffffffffffffffffff16908060020154908060030160009054906101000a900460ff16908060030160019054906101000a900460ff16905085565b6101e9610b91565b6000826040516101f9919061109a565b90815260200160405180910390206040518060a00160405290816000820160009054906101000a900473ffffffffffffffffffffffffffffffffffffffff1673ffffffffffffffffffffffffffffffffffffffff1673ffffffffffffffffffffffffffffffffffffffff1681526020016001820160009054906101000a900473ffffffffffffffffffffffffffffffffffffffff1673ffffffffffffffffffffffffffffffffffffffff1673ffffffffffffffffffffffffffffffffffffffff168152602001600282015481526020016003820160009054906101000a900460ff1660038111156102ed576102ec610dfd565b5b60038111156102ff576102fe610dfd565b5b81526020016003820160019054906101000a900460ff1615151515815250509050919050565b60003411610368576040517f08c379a000000000000000000000000000000000000000000000000000000000815260040161035f90611134565b60405180910390fd5b600082604051610378919061109a565b908152602001604051809103902060030160019054906101000a900460ff16156103d7576040517f08c379a00000000000000000000000000000000000000000000000000000000081526004016103ce906111c6565b60405180910390fd5b6040518060a001604052803373ffffffffffffffffffffffffffffffffffffffff1681526020018273ffffffffffffffffffffffffffffffffffffffff1681526020013481526020016001600381111561043457610433610dfd565b5b815260200160011515815250600083604051610450919061109a565b908152602001604051809103902060008201518160000160006101000a81548173ffffffffffffffffffffffffffffffffffffffff021916908373ffffffffffffffffffffffffffffffffffffffff16021790555060208201518160010160006101000a81548173ffffffffffffffffffffffffffffffffffffffff021916908373ffffffffffffffffffffffffffffffffffffffff1602179055506040820151816002015560608201518160030160006101000a81548160ff0219169083600381111561052157610520610dfd565b5b021790555060808201518160030160016101000a81548160ff0219169083151502179055509050503373ffffffffffffffffffffffffffffffffffffffff167f086ef21bf36e265f583d1740184679fa503cfbfb695cffff03746dbcbb0a541a833460405161059192919061121f565b60405180910390a25050565b600080826040516105ae919061109a565b908152602001604051809103902090508060030160019054906101000a900460ff1661060f576040517f08c379a00000000000000000000000000000000000000000000000000000000081526004016106069061129b565b60405180910390fd5b8060000160009054906101000a900473ffffffffffffffffffffffffffffffffffffffff1673ffffffffffffffffffffffffffffffffffffffff163373ffffffffffffffffffffffffffffffffffffffff16146106a1576040517f08c379a000000000000000000000000000000000000000000000000000000000815260040161069890611307565b60405180910390fd5b600160038111156106b5576106b4610dfd565b5b8160030160009054906101000a900460ff1660038111156106d9576106d8610dfd565b5b14610719576040517f08c379a000000000000000000000000000000000000000000000000000000000815260040161071090611373565b60405180910390fd5b60028160030160006101000a81548160ff0219169083600381111561074157610740610dfd565b5b021790555060008160010160009054906101000a900473ffffffffffffffffffffffffffffffffffffffff1673ffffffffffffffffffffffffffffffffffffffff168260020154604051610794906113c4565b60006040518083038185875af1925050503d80600081146107d1576040519150601f19603f3d011682016040523d82523d6000602084013e6107d6565b606091505b505090508061081a576040517f08c379a000000000000000000000000000000000000000000000000000000000815260040161081190611425565b60405180910390fd5b8160010160009054906101000a900473ffffffffffffffffffffffffffffffffffffffff1673ffffffffffffffffffffffffffffffffffffffff167fecfaefb21a9167b242135b5b3860739608248e70c5b1bc89a05221f147ff31f784846002015460405161088a92919061121f565b60405180910390a2505050565b600080826040516108a8919061109a565b908152602001604051809103902090508060030160019054906101000a900460ff16610909576040517f08c379a00000000000000000000000000000000000000000000000000000000081526004016109009061129b565b60405180910390fd5b8060000160009054906101000a900473ffffffffffffffffffffffffffffffffffffffff1673ffffffffffffffffffffffffffffffffffffffff163373ffffffffffffffffffffffffffffffffffffffff161461099b576040517f08c379a000000000000000000000000000000000000000000000000000000000815260040161099290611491565b60405180910390fd5b600160038111156109af576109ae610dfd565b5b8160030160009054906101000a900460ff1660038111156109d3576109d2610dfd565b5b14610a13576040517f08c379a0000000000000000000000000000000000000000000000000000000008152600401610a0a90611373565b60405180910390fd5b60038160030160006101000a81548160ff02191690836003811115610a3b57610a3a610dfd565b5b021790555060008160000160009054906101000a900473ffffffffffffffffffffffffffffffffffffffff1673ffffffffffffffffffffffffffffffffffffffff168260020154604051610a8e906113c4565b60006040518083038185875af1925050503d8060008114610acb576040519150601f19603f3d011682016040523d82523d6000602084013e610ad0565b606091505b5050905080610b14576040517f08c379a0000000000000000000000000000000000000000000000000000000008152600401610b0b90611425565b60405180910390fd5b8160000160009054906101000a900473ffffffffffffffffffffffffffffffffffffffff1673ffffffffffffffffffffffffffffffffffffffff167f3ea6a359f1bd60c3bf29e542d3b7cfec9c3d08e1bd366e58e2329d370aadb8d1848460020154604051610b8492919061121f565b60405180910390a2505050565b6040518060a00160405280600073ffffffffffffffffffffffffffffffffffffffff168152602001600073ffffffffffffffffffffffffffffffffffffffff1681526020016000815260200160006003811115610bf157610bf0610dfd565b5b81526020016000151581525090565b6000604051905090565b600080fd5b600080fd5b600080fd5b600080fd5b6000601f19601f8301169050919050565b7f4e487b7100000000000000000000000000000000000000000000000000000000600052604160045260246000fd5b610c6782610c1e565b810181811067ffffffffffffffff82111715610c8657610c85610c2f565b5b80604052505050565b6000610c99610c00565b9050610ca58282610c5e565b919050565b600067ffffffffffffffff821115610cc557610cc4610c2f565b5b610cce82610c1e565b9050602081019050919050565b82818337600083830152505050565b6000610cfd610cf884610caa565b610c8f565b905082815260208101848484011115610d1957610d18610c19565b5b610d24848285610cdb565b509392505050565b600082601f830112610d4157610d40610c14565b5b8135610d51848260208601610cea565b91505092915050565b600060208284031215610d7057610d6f610c0a565b5b600082013567ffffffffffffffff811115610d8e57610d8d610c0f565b5b610d9a84828501610d2c565b91505092915050565b600073ffffffffffffffffffffffffffffffffffffffff82169050919050565b6000610dce82610da3565b9050919050565b610dde81610dc3565b82525050565b6000819050919050565b610df781610de4565b82525050565b7f4e487b7100000000000000000000000000000000000000000000000000000000600052602160045260246000fd5b60048110610e3d57610e3c610dfd565b5b50565b6000819050610e4e82610e2c565b919050565b6000610e5e82610e40565b9050919050565b610e6e81610e53565b82525050565b60008115159050919050565b610e8981610e74565b82525050565b600060a082019050610ea46000830188610dd5565b610eb16020830187610dd5565b610ebe6040830186610dee565b610ecb6060830185610e65565b610ed86080830184610e80565b9695505050505050565b610eeb81610dc3565b82525050565b610efa81610de4565b82525050565b610f0981610e53565b82525050565b610f1881610e74565b82525050565b60a082016000820151610f346000850182610ee2565b506020820151610f476020850182610ee2565b506040820151610f5a6040850182610ef1565b506060820151610f6d6060850182610f00565b506080820151610f806080850182610f0f565b50505050565b600060a082019050610f9b6000830184610f1e565b92915050565b610faa81610dc3565b8114610fb557600080fd5b50565b600081359050610fc781610fa1565b92915050565b60008060408385031215610fe457610fe3610c0a565b5b600083013567ffffffffffffffff81111561100257611001610c0f565b5b61100e85828601610d2c565b925050602061101f85828601610fb8565b9150509250929050565b600081519050919050565b600081905092915050565b60005b8381101561105d578082015181840152602081019050611042565b60008484015250505050565b600061107482611029565b61107e8185611034565b935061108e81856020860161103f565b80840191505092915050565b60006110a68284611069565b915081905092915050565b600082825260208201905092915050565b7f4465706f73697420616d6f756e74206d7573742062652067726561746572207460008201527f68616e2030000000000000000000000000000000000000000000000000000000602082015250565b600061111e6025836110b1565b9150611129826110c2565b604082019050919050565b6000602082019050818103600083015261114d81611111565b9050919050565b7f457363726f7720616c72656164792065786973747320666f722074686973206960008201527f7373756500000000000000000000000000000000000000000000000000000000602082015250565b60006111b06024836110b1565b91506111bb82611154565b604082019050919050565b600060208201905081810360008301526111df816111a3565b9050919050565b60006111f182611029565b6111fb81856110b1565b935061120b81856020860161103f565b61121481610c1e565b840191505092915050565b6000604082019050818103600083015261123981856111e6565b90506112486020830184610dee565b9392505050565b7f457363726f7720646f6573206e6f742065786973740000000000000000000000600082015250565b60006112856015836110b1565b91506112908261124f565b602082019050919050565b600060208201905081810360008301526112b481611278565b9050919050565b7f4f6e6c7920636c69656e742063616e2072656c656173652066756e6473000000600082015250565b60006112f1601d836110b1565b91506112fc826112bb565b602082019050919050565b60006020820190508181036000830152611320816112e4565b9050919050565b7f496e76616c696420737461746500000000000000000000000000000000000000600082015250565b600061135d600d836110b1565b915061136882611327565b602082019050919050565b6000602082019050818103600083015261138c81611350565b9050919050565b600081905092915050565b50565b60006113ae600083611393565b91506113b98261139e565b600082019050919050565b60006113cf826113a1565b9150819050919050565b7f4661696c656420746f2073656e64204574686572000000000000000000000000600082015250565b600061140f6014836110b1565b915061141a826113d9565b602082019050919050565b6000602082019050818103600083015261143e81611402565b9050919050565b7f4f6e6c7920636c69656e742063616e20726566756e6400000000000000000000600082015250565b600061147b6016836110b1565b915061148682611445565b602082019050919050565b600060208201905081810360008301526114aa8161146e565b905091905056fea2646970667358221220073af08c3bfbb8561bba9af7a3e487d169d6ef5dce491649acf5031bee500c6464736f6c63430008180033",
  "linkReferences": {},
  "deployedLinkReferences": {}
}